:020000040000FA
:02000000AF2827
:040002000034003492
:08000800A900030EAA008312F7
:1000100003138C1E1028831203131A08AC00AB14B0
:10002000831203130B1D2C282414A80AF430280271
:10003000031D1C28A8012B142808003C031D2B2895
:10004000AF0A02302F02031D2B28AF01AE0A033086
:100050002E020319AE010B112A0E8300A90E290EE0
:100060000900831203131F1551201E08A3008316D5
:1000700003131E0883120313A20014302202031C70
:1000800031280310CE302202031831280310220C2D
:10009000A100003003180530A00003105420A40173
:1000A00008001F195128080026082102031C6B288C
:1000B000592883120313891009152B1C08002B10D3
:1000C0008312031310100E08A7000310A70C8E0153
:1000D0008F011014080083120313091189140800FA
:1000E000AB102C08AC1B892801302C020319942872
:1000F00002302C020319972803302C0203199A2886
:1001000004302C0203199D2805302C020319A02865
:1001100008002C1B90288C282C083F39A5000800CB
:100120002C083F39A60008002508A320080026084F
:10013000A32008002008A32008002108A32008000D
:100140002708A3200800AD0083160313981CA628D7
:10015000831203132D0899008312031308008316DA
:1001600003130430810083120313E0308B008316E5
:1001700003138C168316031333309900831603136D
:1001800024309800831203139030980083160313D1
:1001900081308700831603138801831203138601BD
:1001A000831603130F30850083160313073089006D
:1001B00083160313CD309F008312031341309F0039
:1001C000831203130530A5002D30A60083160313F8
:1001D0008901831203138901831203138801831693
:1001E000031307148312031307309000A801A7011B
:1001F000AB01AC01AD01AE01AF0124183120AB1849
:1002000070200321FD28831203132E08003C0319DC
:100210000E292E08013C0319132918292608B100BC
:100220005E30B5001C292108B1007730B5001C29CB
:100230002708B1007130B50083120313B201B30176
:10024000B4013108B40064303402031C2A29B4001C
:10025000B20A23290A303402031C3129B400B30A3C
:100260002A29350883120313880083120313871485
:100270005921871083120313320800258800831246
:10028000031307155921071183120313330800259F
:1002900088008312031387155921871183120313D2
:1002A000340800258800831203130716592107120A
:0C02B00008003230B000B00B5B290800E1
:100A0000B60005308A00360882073F3406345B346E
:100A10004F3466346D347D3407347F346F340034A2
:040A2000003400346A
:02400E00721F1F
:00000001FF
